:1010000000090020B91D0000B51D0000B51D00003D
:1010100000000000000000000000000000000000D0
:10102000000000000000000000000000B51D0000EE
:101030000000000000000000B51D0000B51D00000C
:10104000B51D0000B51D0000B51D0000B51D000058
:10105000FD110000B51D0000B51D0000B51D00000C
:1010600051110000B51D0000B51D0000B51D0000A8
:10107000B51D0000B51D0000B51D0000B51D000028
:10108000B51D0000B51D0000751700008517000094
:10109000951700000000000000000000B51D0000D2
:1010A000B51D0000B51D0000B51D0000B51D0000F8
:1010B0000000000010B5064C2378002B07D1054B2B
:1010C000002B02D0044800E000BF0123237010BDB4
:1010D00020000020000000003423000008B5084B69
:1010E000002B03D00748084900E000BF0748036809
:1010F000002B00D108BD064B002BFBD09847F9E729
:1011000000000000342300002400002034230000ED
:101110000000000010B50020084B9847084CFA2149
:101120008900A047074B1860FA218900A047064BA9
:1011300018600522054B1A6010BDC046451B000013
:1011400031210000040000200000002010E000E039
:1011500010B50B4B1C690B498A69986802439A6069
:10116000094B8B61002C05D0206863689847A46800
:10117000002CF9D1024BD9689A688A439A6010BD55
:101180000800002000040042FFFF0F0F064A116A0A
:1011900002230B4313620122044B1A70191C0B78B3
:1011A0001342FCD17047C0460004004000040042D6
:1011B0001723002A0DD18B00074A9B58002B03D11F
:1011C00089008850002304E0834201D01D2300E001
:1011D0000023181C7047C046600000201723002918
:1011E00007D100221F2800D8034A01238340D3607F
:1011F0000023181C7047C0460018004070B500223C
:10120000154B1A7000231F25144E134C1F2B19D990
:101210000FE0002100E012490A619B009B59002B5E
:1012200000D0984723780133DBB223700F2BEDD920
:1012300011E0291C194001228A400021096911424C
:10124000E7D1EFE7291C194001228A4004490969C6
:101250001142E0D1E6E770BD5C0000206000002094
:1012600000180040044A117802230B43137053788E
:101270005BB2002BFBDB70470018004000B583B069
:10128000124A916940230B43936101A900230B701B
:1012900005200F4B984705200E4B98470E4A1178B2
:1012A00001230B43137053785BB2002BFBDB0B4B1A
:1012B000191C4031002204C38B42FCD11022084B80
:1012C0001A60084B984703B000BDC04600040040B8
:1012D0005D1C0000D11B00000018004060000020D1
:1012E00000E100E06512000000230360436001227A
:1012F0000272427283720233C3727047F0B583B0D8
:10130000051C0C1C01A900234B70CB7023790B70BA
:10131000237A8B702078154B984700261F2D00D814
:10132000134E07222A409200E07AA37A002B01D0C4
:1013300008231843EB089B00F318996990400F2786
:101340009740B9430A1C02439A61637A002B06D086
:1013500073690122AA40151C1D43756104E073697D
:101360000122AA409343736103B0F0BD551D0000F4
:101370000018004030B585B001AA0B4B32CB32C209
:10138000019B83420AD0029B834205D00023039A2B
:10139000824205D1023302E0012300E00023DBB2E8
:1013A000181C05B030BDC046B4220000F0B54F4651
:1013B0004646C0B487B0041C0E1C9046081C914BD6
:1013C00098478146904D291C0C3105A803228F4F68
:1013D000B847291C103103A80622B8470023A36090
:1013E000E36023616361237663764B469A00884B02
:1013F000D450266043469B78082B04D117204A46D8
:10140000D20700D4F9E0237133880520DB0700D52B
:10141000F3E0F37B1730DB0600D5EEE033889B0763
:1014200000D5EAE043461B7C002B0CD002A9012327
:101430008B700022CA704246127E0A704B7043467F
:10144000187D744B984743461B7F002B0DD002A993
:1014500001238B700022CA704246526A0A704B7098
:1014600043461B6AD8B26B4B98476B490B6A4A4696
:10147000520003A8125A13430B6243469B78082B71
:1014800006D10B6A4A4601325200125A13430B62CC
:1014900001A943461B780B7005AB4A469D5C281C8E
:1014A0005E4B9847281C5E4B9847434698881B899B
:1014B00003434246907992781043184343465B7841
:1014C000002B02D080231B01184321687F22CB7B95
:1014D0009343FCD130804346587B431E98418000A3
:1014E00043469B7B002B01D00123184321687F22B8
:1014F000CB7B9343FCD1FF333371002805D02168A7
:101500007F22CB7B9343FCD170714346987ADB7A80
:10151000002B01D01023184343461B7B002B01D026
:101520002023184321687F22CB7B9343FCD1B071E9
:1015300022687F21D37B8B43FCD12379042B05D0F8
:10154000082B41D01720002B57D124E07F21D37BDB
:101550008B43FCD128334246D35C337421687F220D
:10156000CB7B9343FCD129334246D35C337521684E
:101570007F22CB7B9343FCD12A334246D35C337624
:1015800021687F22CB7B9343FCD12B334246D35C33
:101590007376002031E07F21D37B8B43FCD143461F
:1015A0001B8D338221687F22CB7B9343FCD1434642
:1015B0005B8D338321687F22CB7B9343FCD14346F1
:1015C0009B8D7383002018E07F21D37B8B43FCD15C
:1015D00043469B6A336121687F22CB7B9343FCD1D6
:1015E0004346DB6AB36121687F22CB7B9343FCD106
:1015F00043461B6BF3610020FFE707B00CBC90462D
:101600009946F0BD75130000B4220000A12200002D
:10161000A0000020551D0000000400405D1C0000DB
:10162000D11B000010B502687F24D37BA343FCD1FB
:101630000379042B05D0082B0BD01720002B0BD1DE
:1016400003E0C9B21174002006E089B211820020C3
:1016500002E011610020FFE710BDC04602687F2153
:10166000D37B8B43FCD10379042B05D0082B09D005
:101670000020002B08D102E0107CC0B204E0108AE8
:1016800080B201E01069FFE77047C04630B50468DA
:101690007F25E37BAB43FCD10379042B05D0082BDA
:1016A00014D01720002B19D107E01720012915D8D5
:1016B000D2B261180A76002010E0172001290DD857
:1016C00092B20C3149000A53002007E0172001298B
:1016D00004D8063189000A510020FFE730BDC0461A
:1016E00010B502687F24D37BA343FCD10379042B7C
:1016F00005D0082B0BD01720002B0BD103E0C9B26B
:101700001175002006E089B21183002002E091618A
:101710000020FFE710BDC04638B58000144BC55807
:101720002B689C7B2B7E1C406B7E1C40E30705D501
:10173000281CAB68984701232A689373A30705D533
:10174000281CEB68984702232A689373E30605D5A3
:10175000281C2B69984710232A689373A30605D584
:10176000281C6B6998472B6820229A7338BDC046A5
:10177000A000002008B50020014B984708BDC046D6
:101780001917000008B50120014B984708BDC04655
:101790001917000008B50220014B984708BDC04644
:1017A000191700007047C0460C4B1B68002B10D166
:1017B000EFF31083002B09D172B6BFF35F8F0022C5
:1017C000074B1A700132074B1A7002E00022054BDA
:1017D0001A70024A13680133136070473C000020FE
:1017E0001C00002040000020084B1A68013A1A60D3
:1017F0001B68002B09D1064B1B78002B05D001225A
:10180000044B1A70BFF35F8F62B670473C00002034
:10181000400000201C00002008B5082803D88000E4
:101820001B4B1B589F46002031E01A4B18692EE0D5
:10183000194B186A8005800F184BC340181C26E00E
:10184000144B586923E0134B1B68022018401ED02C
:1018500011491022CB681A42FCD00E4B1B685B0763
:1018600014D500200E4B98470A4B9B681B041B0C99
:1018700058430CE05023084AD35C00205B0706D590
:10188000044BD86803E08020000200E0054808BD52
:10189000CC220000440000200008004000127A0022
:1018A000791C0000006CDC0270B50C4C236A0178D6
:1018B000857842780120024092014026B3431343C9
:1018C000021C2A40D2017F308343134303220A4083
:1018D000120203490B401343236270BD000800400D
:1018E000FFFCFFFF082803D88000254B1B589F46AC
:1018F000172044E0234A116A02230B43136200209D
:101900003DE0204A916902230B439361002036E0B9
:101910001C4A118A02230B43138200202FE0194A2C
:10192000918A02230B439382002028E016490B681A
:10193000022213430B60134B9A84191C0E32CB689E
:101940001A42FCD0104A91680E4BD96252689A62D2
:1019500000229A84191C1032CB681A42FCD00A4B20
:101960001B689BB2074A9384002008E00549442283
:10197000885C022303438B54002000E00020704762
:10198000F0220000000800404400002030B585B07F
:10199000C222D2001A4B9A601A4A53681E218B4306
:1019A000536001236A4613700024174DE0B2694664
:1019B000A8470134252CF9D103A80024447001253F
:1019C00085700470114B98470620114B9847114BB6
:1019D0009847114B1C725C729C72DC7201956B46CD
:1019E0005C7006236A4613701472547200206946B4
:1019F0000A4B984700200A4B984705B030BDC046B7
:101A000000080040004000415D1C0000A9180000D3
:101A1000E5180000251A000000040040491A0000E3
:101A2000011B0000064A916908230B4393610122C0
:101A3000044B1A70191C0B781342FCD17047C04636
:101A400000040040000C004070B5061C041C0D781A
:101A50002D0205434B78002B02D08023DB021D436F
:101A60004B7A002B02D080231B031D4348680128BA
:101A700018D9431E184210D1022806D90223002289
:101A800001325B009842FBD800E000221202324390
:101A9000141C80235B031D4304E0040234438023B1
:101AA0009B021D430B7A002B02D080239B031D4316
:101AB0000F4A53785BB2002BFBDB0E4B98470E4B63
:101AC0001E700B4A53785BB2002BFBDB084B9C600B
:101AD0001A1C53785BB2002BFBDB054A516880234C
:101AE0005B020B401D435560044B984770BDC046D8
:101AF000000C0040A9170000080C0040E917000086
:101B000010B5041C0B4A53785BB2002BFBDB0A4B6D
:101B100098470A4B1C70074A53785BB2002BFBDBDB
:101B2000044A5368802149020B435360044B984791
:101B300010BDC046000C0040A9170000040C004076
:101B4000E917000070B5041C1A4A53785BB2002BE9
:101B5000FBDB194B9847194B1C70164A53785BB244
:101B6000002BFBDB134E7068C004C00E144B98476B
:101B7000051C124B1C707668F602F60F114B1C7098
:101B80000C4A53785BB2002BFBDB0A4B9C68240A9F
:101B9000A4B20D4B9847002E07D1012C07D9281C61
:101BA000211C0A4B9847051C01E00134E540281C24
:101BB00070BDC046000C0040A9170000040C004096
:101BC00019180000080C0040E9170000312100003E
:101BD00010B5041C064B9847064B1C70064A5188EA
:101BE0008023DB010B435380044B984710BDC04654
:101BF000A9170000020C0040000C0040E91700008B
:101C000010B5041C0F4B98470F4B1C700F4B5A8894
:101C10001205100F59880E4A0A405A8059880D4AF9
:101C20000A405A80191C8022D2014B881342FCD1F1
:101C3000064902024888064B034013434B80064B7B
:101C4000984710BDA9170000020C0040000C00408E
:101C5000FFF0FFFFFFBFFFFFE917000010B50C7892
:101C600024020443024B9847A4B2024B5C8010BD8F
:101C7000011C0000000C004010B5041C064B9847E6
:101C8000064B1C70064B5C882405240F054B9847B7
:101C9000201C054B984710BDA9170000020C0040FE
:101CA000000C0040E9170000451B000030B5D37858
:101CB000002B1ED11478802C04D0240680235B02D4
:101CC0001C4300E0002453780225AB430AD19378EB
:101CD000002B03D180239B021C4302E0C023DB02C4
:101CE0001C4341605378013B012B12D8184B1C4018
:101CF0000FE041600B041B0CA024E4052343836226
:101D00000B0CD024240623438362D378002B18D0F5
:101D10001CE00B041B0CA025ED052B432343836221
:101D20000B0CD0252D062B4323438362D378002B45
:101D30000CD1630305D59378012B01D1816100E0BB
:101D400041615378013B012B00D8816030BDC04612
:101D5000FFFFFBFF08B5031C0A1CC1090020002976
:101D600004D15809C00105498C4660441F210B402D
:101D70001E399940024B984708BDC04600440041B7
:101D8000AD1C00007047C04608B5054B9847054B91
:101D90009847054B9847054B9847054B984708BD12
:101DA0008D190000A51700008D1100007D120000A4
:101DB000851D0000FEE7C04670B52E4B2E4A9A42A4
:101DC00003D02E4B2B4A9A4204D32D4B2D4A9A42D4
:101DD00010D31EE02C4A294B03339B1A9B08013376
:101DE0009B000022234824498C58845004329A4294
:101DF000FAD1EAE7254A224B03339B1A9B080133A9
:101E00009B0000221F4800211418216004329A42CE
:101E1000FAD11F4AFF211F4B8B439360FD3990235A
:101E20005B001D4AD1501D48C3780324A3430222FE
:101E30001343C370C3780C26B34308210B43C3700C
:101E4000174B987B3025A843051C20202843987306
:101E5000987BB04301439973997BA1430A439A73DA
:101E6000104A516880230B4353600F4B98470F4B28
:101E70009847FEE7000000203423000020000020E7
:101E80000001002020000020040000202400002089
:101E900000ED00E000100000007000410050004123
:101EA000004800410040004155220000B9200000D8
:101EB00038B5134B1B6A5B0504D512480021124B41
:101EC00098471CE00F48114B9847114B984209D98D
:101ED000104B9C466044FA242402FA231B019842CA
:101EE00002D800E0002004012204120C0A4801215B
:101EF0000A4DA8472204120E09480021A84738BD00
:101F000000440041C8000020251600005D160000B6
:101F1000DF2E000020D1FFFFE40000208D1600001E
:101F2000AC000020F0B557464E464546E0B48EB0B2
:101F300001AC00262670A6700025A680268165705B
:101F4000E5722573A573657325746661A6612685A0
:101F50006685A6856023A3715E3BA372013B9A460A
:101F60002377132323620F3B98466362354B9946D0
:101F7000181C3549221C354FB847257026816570DD
:101F8000A572E5722573A57365732577266266626F
:101F900026856685A6854346A3704023A371A023AA
:101FA000DB00A3802A23E554FA22013BE254534686
:101FB0002374282363614346A36125482549221CD5
:101FC000B8472570A570A680A57126816570A57299
:101FD000E5722573A573657325746661A66125771F
:101FE0002662666226856685A6851B481B49221CDB
:101FF000B8474B461A687F21D37B8B43FCD11188AD
:1020000002330B431380124B1A687F21D37B8B431F
:10201000FCD1118802330B4313800F4B1A687F21C8
:10202000D37B8B43FCD1118802330B4313800548CB
:10203000FA2109020A4B98470EB01CBC90469946FB
:10204000A246F0BDE4000020002C0042AD130000C9
:10205000AC00002000300042C800002000340042E4
:10206000E116000010B584B001AC201C074B984766
:102070000A23019300236360013323720233E37266
:102080000A20211C024B984704B010BDE912000041
:10209000FD12000008B505480A210022044B9847AC
:1020A0000A200021034B984708BDC046B11E00001E
:1020B000B1110000DD110000F8B5154B9847154B24
:1020C0009847154B9847154B9847154B9847012251
:1020D000144B1A70BFF35F8F62B6124B9C460027F9
:1020E000114A0426114D0224181C012172B6BFF3B7
:1020F0005F8F63461F701369B34313616C70017087
:10210000BFF35F8F62B6BFF34F8F30BFEEE7C046BD
:10211000891D000015110000251F0000652000002A
:10212000952000001C00002000ED00E000040040AD
:10213000002243088B4274D303098B425FD3030A06
:102140008B4244D3030B8B4228D3030C8B420DD319
:10215000FF22090212BA030C8B4202D312120902A7
:1021600065D0030B8B4219D300E0090AC30B8B42E5
:1021700001D3CB03C01A5241830B8B4201D38B0393
:10218000C01A5241430B8B4201D34B03C01A524138
:10219000030B8B4201D30B03C01A5241C30A8B427B
:1021A00001D3CB02C01A5241830A8B4201D38B0266
:1021B000C01A5241430A8B4201D34B02C01A52410A
:1021C000030A8B4201D30B02C01A5241CDD2C3097C
:1021D0008B4201D3CB01C01A524183098B4201D3F8
:1021E0008B01C01A524143098B4201D34B01C01AE3
:1021F000524103098B4201D30B01C01A5241C3085B
:102200008B4201D3CB00C01A524183088B4201D3C9
:102210008B00C01A524143088B4201D34B00C01AB5
:102220005241411A00D20146524110467047FFE721
:1022300001B5002000F00CF802BDC0460029F7D01F
:1022400003B5FFF775FF0EBC4243891A1847C04615
:102250007047C0460E4B70B500251E1C0D4CE41A8D
:10226000A410A54204D0AB00F35898470135F8E715
:1022700000F050F8084B00251E1C084CE41AA4106E
:10228000A54204D0AB00F35898470135F8E770BD7C
:10229000202300002023000020230000242300002E
:1022A000002310B5934203D0CC5CC4540133F9E74A
:1022B00010BD0000002C00420030004200340042FB
:1022C0001B1C1C0000080010002000002A18000041
:1022D0002618000026180000861800008618000046
:1022E0004018000030180000461800007418000064
:1022F00010190000F0180000F01800007C19000010
:10230000021900001E190000F41800002C1900002A
:102310006C190000F8B5C046F8BC08BC9E46704772
:10232000DD100000F8B5C046F8BC08BC9E467047FA
:04233000B5100000E4
:1023340008000000401F0000000000000C00000026
:102344000000000000000000000000000100000088
:0400000300001DB923
:00000001FF
